S020000061746D656761333238705F62696E6172795F746F5F6263642E73726563DA
S11300000C9434000C9449000C9449000C9449005D
S11300100C9449000C9449000C9449000C94490038
S11300200C9449000C9449000C9449000C94490028
S11300300C9449000C9449000C9449000C94490018
S11300400C9449000C9449000C9449000C94490008
S11300500C9449000C9449000C9449000C944900F8
S11300600C9449000C94490011241FBECFEFD8E032
S1130070DEBFCDBF11E0A0E0B1E0E6E5F1E002C0F3
S113008005900D92A630B107D9F70E948A000C940E
S1130090A9000C9400009B01AC0160E070E0220F09
S11300A0331F441F551FBB27A52F942F832F8F70F9
S11300B09070A070B0700597A105B10520F0205094
S11300C03D4F4F4F5F4FDA01C901072E7CE0B695D3
S11300D0A795979587957A95D1F7702D8F70907025
S11300E0A070B0700597A105B10520F02050304DE7
S11300F04F4F5F4F6F5F7F4F6730710581F6689494
S113010016F856954795379527951694D1F7822F6B
S1130110932F089560910001709101018091020173
S1130120909103010E944B00909305018093040178
S113013081E084B985B928E833E169E170E048E8F1
S113014053E1CB010197F1F721503040D1F79A01E7
S1090150F8CFF894FFCF84
S1090156E60300000B00AB
S9030000FC
